{
  "contractName": "supplyChain",
  "abi": [
    {
      "anonymous": false,
      "inputs": [
        {
          "indexed": false,
          "internalType": "uint32",
          "name": "productId",
          "type": "uint32"
        }
      ],
      "name": "TransferOwnership",
      "type": "event"
    },
    {
      "inputs": [],
      "name": "owner_id",
      "outputs": [
        {
          "internalType": "uint32",
          "name": "",
          "type": "uint32"
        }
      ],
      "stateMutability": "view",
      "type": "function"
    },
    {
      "inputs": [
        {
          "internalType": "uint32",
          "name": "",
          "type": "uint32"
        }
      ],
      "name": "ownerships",
      "outputs": [
        {
          "internalType": "uint32",
          "name": "productId",
          "type": "uint32"
        },
        {
          "internalType": "uint32",
          "name": "ownerId",
          "type": "uint32"
        },
        {
          "internalType": "uint32",
          "name": "trxTimeStamp",
          "type": "uint32"
        },
        {
          "internalType": "address",
          "name": "productOwner",
          "type": "address"
        }
      ],
      "stateMutability": "view",
      "type": "function"
    },
    {
      "inputs": [],
      "name": "participant_id",
      "outputs": [
        {
          "internalType": "uint32",
          "name": "",
          "type": "uint32"
        }
      ],
      "stateMutability": "view",
      "type": "function"
    },
    {
      "inputs": [
        {
          "internalType": "uint32",
          "name": "",
          "type": "uint32"
        }
      ],
      "name": "participants",
      "outputs": [
        {
          "internalType": "string",
          "name": "userName",
          "type": "string"
        },
        {
          "internalType": "string",
          "name": "password",
          "type": "string"
        },
        {
          "internalType": "string",
          "name": "participantType",
          "type": "string"
        },
        {
          "internalType": "address",
          "name": "participantAddress",
          "type": "address"
        }
      ],
      "stateMutability": "view",
      "type": "function"
    },
    {
      "inputs": [
        {
          "internalType": "uint32",
          "name": "",
          "type": "uint32"
        },
        {
          "internalType": "uint256",
          "name": "",
          "type": "uint256"
        }
      ],
      "name": "productTrack",
      "outputs": [
        {
          "internalType": "uint32",
          "name": "",
          "type": "uint32"
        }
      ],
      "stateMutability": "view",
      "type": "function"
    },
    {
      "inputs": [],
      "name": "product_id",
      "outputs": [
        {
          "internalType": "uint32",
          "name": "",
          "type": "uint32"
        }
      ],
      "stateMutability": "view",
      "type": "function"
    },
    {
      "inputs": [
        {
          "internalType": "uint32",
          "name": "",
          "type": "uint32"
        }
      ],
      "name": "products",
      "outputs": [
        {
          "internalType": "string",
          "name": "modelNumber",
          "type": "string"
        },
        {
          "internalType": "string",
          "name": "partNumber",
          "type": "string"
        },
        {
          "internalType": "string",
          "name": "serialNumber",
          "type": "string"
        },
        {
          "internalType": "address",
          "name": "productOwner",
          "type": "address"
        },
        {
          "internalType": "uint32",
          "name": "cost",
          "type": "uint32"
        },
        {
          "internalType": "uint32",
          "name": "mfgTimeStamp",
          "type": "uint32"
        }
      ],
      "stateMutability": "view",
      "type": "function"
    },
    {
      "inputs": [
        {
          "internalType": "string",
          "name": "_name",
          "type": "string"
        },
        {
          "internalType": "string",
          "name": "_pass",
          "type": "string"
        },
        {
          "internalType": "address",
          "name": "_pAdd",
          "type": "address"
        },
        {
          "internalType": "string",
          "name": "_pType",
          "type": "string"
        }
      ],
      "name": "addParticipant",
      "outputs": [
        {
          "internalType": "uint32",
          "name": "",
          "type": "uint32"
        }
      ],
      "stateMutability": "nonpayable",
      "type": "function"
    },
    {
      "inputs": [
        {
          "internalType": "uint32",
          "name": "_participant_id",
          "type": "uint32"
        }
      ],
      "name": "getParticipant",
      "outputs": [
        {
          "internalType": "string",
          "name": "",
          "type": "string"
        },
        {
          "internalType": "address",
          "name": "",
          "type": "address"
        },
        {
          "internalType": "string",
          "name": "",
          "type": "string"
        }
      ],
      "stateMutability": "view",
      "type": "function"
    },
    {
      "inputs": [
        {
          "internalType": "uint32",
          "name": "_ownerId",
          "type": "uint32"
        },
        {
          "internalType": "string",
          "name": "_modelNumber",
          "type": "string"
        },
        {
          "internalType": "string",
          "name": "_partNumber",
          "type": "string"
        },
        {
          "internalType": "string",
          "name": "_serialNumber",
          "type": "string"
        },
        {
          "internalType": "uint32",
          "name": "_productCost",
          "type": "uint32"
        }
      ],
      "name": "addProduct",
      "outputs": [
        {
          "internalType": "uint32",
          "name": "",
          "type": "uint32"
        }
      ],
      "stateMutability": "nonpayable",
      "type": "function"
    },
    {
      "inputs": [
        {
          "internalType": "uint32",
          "name": "_productId",
          "type": "uint32"
        }
      ],
      "name": "getProduct",
      "outputs": [
        {
          "internalType": "string",
          "name": "",
          "type": "string"
        },
        {
          "internalType": "string",
          "name": "",
          "type": "string"
        },
        {
          "internalType": "string",
          "name": "",
          "type": "string"
        },
        {
          "internalType": "uint32",
          "name": "",
          "type": "uint32"
        },
        {
          "internalType": "address",
          "name": "",
          "type": "address"
        },
        {
          "internalType": "uint32",
          "name": "",
          "type": "uint32"
        }
      ],
      "stateMutability": "view",
      "type": "function"
    },
    {
      "inputs": [
        {
          "internalType": "uint32",
          "name": "_user1Id",
          "type": "uint32"
        },
        {
          "internalType": "uint32",
          "name": "_user2Id",
          "type": "uint32"
        },
        {
          "internalType": "uint32",
          "name": "_prodId",
          "type": "uint32"
        }
      ],
      "name": "newOwner",
      "outputs": [
        {
          "internalType": "bool",
          "name": "",
          "type": "bool"
        }
      ],
      "stateMutability": "nonpayable",
      "type": "function"
    },
    {
      "inputs": [
        {
          "internalType": "uint32",
          "name": "_prodId",
          "type": "uint32"
        }
      ],
      "name": "getProvenance",
      "outputs": [
        {
          "internalType": "uint32[]",
          "name": "",
          "type": "uint32[]"
        }
      ],
      "stateMutability": "view",
      "type": "function"
    },
    {
      "inputs": [
        {
          "internalType": "uint32",
          "name": "_regId",
          "type": "uint32"
        }
      ],
      "name": "getOwnership",
      "outputs": [
        {
          "internalType": "uint32",
          "name": "",
          "type": "uint32"
        },
        {
          "internalType": "uint32",
          "name": "",
          "type": "uint32"
        },
        {
          "internalType": "address",
          "name": "",
          "type": "address"
        },
        {
          "internalType": "uint32",
          "name": "",
          "type": "uint32"
        }
      ],
      "stateMutability": "view",
      "type": "function"
    },
    {
      "inputs": [
        {
          "internalType": "uint32",
          "name": "_uid",
          "type": "uint32"
        },
        {
          "internalType": "string",
          "name": "_uname",
          "type": "string"
        },
        {
          "internalType": "string",
          "name": "_pass",
          "type": "string"
        },
        {
          "internalType": "string",
          "name": "_utype",
          "type": "string"
        }
      ],
      "name": "authenticateParticipant",
      "outputs": [
        {
          "internalType": "bool",
          "name": "",
          "type": "bool"
        }
      ],
      "stateMutability": "view",
      "type": "function"
    }
  ],
  "bytecode": "0x608060405260008060006101000a81548163ffffffff021916908363ffffffff16021790555060008060046101000a81548163ffffffff021916908363ffffffff16021790555060008060086101000a81548163ffffffff021916908363ffffffff16021790555034801561007357600080fd5b50612e6f806100836000396000f3fe608060405234801561001057600080fd5b50600436106100f55760003560e01c80638f5ebf7111610097578063df6d23f111610066578063df6d23f11461030a578063eab0a4791461033d578063ebf43a7e1461035b578063fc2da9101461038b576100f5565b80638f5ebf7114610252578063a638ac4914610270578063bf712fd6146102a5578063c8569565146102da576100f5565b806350632104116100d3578063506321041461018c578063721b5743146101bc5780637d0a9ac9146101ec57806381e156101461021f576100f5565b80631a074802146100fa5780632e9d52841461012a5780633b26a65d1461015a575b600080fd5b610114600480360381019061010f91906123a3565b6103a9565b60405161012191906123f2565b60405180910390f35b610144600480360381019061013f919061240d565b6103f2565b604051610151919061247b565b60405180910390f35b610174600480360381019061016f9190612496565b611212565b6040516101839392919061259d565b60405180910390f35b6101a660048036038101906101a19190612717565b6113c4565b6040516101b391906123f2565b60405180910390f35b6101d660048036038101906101d191906127e6565b611659565b6040516101e3919061247b565b60405180910390f35b61020660048036038101906102019190612496565b6117d2565b60405161021694939291906128a1565b60405180910390f35b61023960048036038101906102349190612496565b6119ba565b60405161024994939291906128fb565b60405180910390f35b61025a611a3a565b60405161026791906123f2565b60405180910390f35b61028a60048036038101906102859190612496565b611a50565b60405161029c96959493929190612940565b60405180910390f35b6102bf60048036038101906102ba9190612496565b611d22565b6040516102d1969594939291906129b6565b60405180910390f35b6102f460048036038101906102ef9190612496565b611f36565b6040516103019190612aea565b60405180910390f35b610324600480360381019061031f9190612496565b611fd9565b6040516103349493929190612b0c565b60405180910390f35b6103456120f9565b60405161035291906123f2565b60405180910390f35b61037560048036038101906103709190612b7d565b61210d565b60405161038291906123f2565b60405180910390f35b610393612264565b6040516103a091906123f2565b60405180910390f35b600460205281600052604060002081815481106103c557600080fd5b9060005260206000209060089182820401919006600402915091509054906101000a900463ffffffff1681565b600081600160008263ffffffff1663ffffffff16815260200190815260200160002060030160009054906101000a900473ffffffffffffffffffffffffffffffffffffffff1673ffffffffffffffffffffffffffffffffffffffff163373ffffffffffffffffffffffffffffffffffffffff16146104a5576040517f08c379a000000000000000000000000000000000000000000000000000000000815260040161049c90612c5e565b60405180910390fd5b6000600260008763ffffffff1663ffffffff1681526020019081526020016000206040518060800160405290816000820180546104e190612cad565b80601f016020809104026020016040519081016040528092919081815260200182805461050d90612cad565b801561055a5780601f1061052f5761010080835404028352916020019161055a565b820191906000526020600020905b81548152906001019060200180831161053d57829003601f168201915b5050505050815260200160018201805461057390612cad565b80601f016020809104026020016040519081016040528092919081815260200182805461059f90612cad565b80156105ec5780601f106105c1576101008083540402835291602001916105ec565b820191906000526020600020905b8154815290600101906020018083116105cf57829003601f168201915b5050505050815260200160028201805461060590612cad565b80601f016020809104026020016040519081016040528092919081815260200182805461063190612cad565b801561067e5780601f106106535761010080835404028352916020019161067e565b820191906000526020600020905b81548152906001019060200180831161066157829003601f168201915b505050505081526020016003820160009054906101000a900473ffffffffffffffffffffffffffffffffffffffff1673ffffffffffffffffffffffffffffffffffffffff1673ffffffffffffffffffffffffffffffffffffffff168152505090506000600260008763ffffffff1663ffffffff16815260200190815260200160002060405180608001604052908160008201805461071b90612cad565b80601f016020809104026020016040519081016040528092919081815260200182805461074790612cad565b80156107945780601f1061076957610100808354040283529160200191610794565b820191906000526020600020905b81548152906001019060200180831161077757829003601f168201915b505050505081526020016001820180546107ad90612cad565b80601f01602080910402602001604051908101604052809291908181526020018280546107d990612cad565b80156108265780601f106107fb57610100808354040283529160200191610826565b820191906000526020600020905b81548152906001019060200180831161080957829003601f168201915b5050505050815260200160028201805461083f90612cad565b80601f016020809104026020016040519081016040528092919081815260200182805461086b90612cad565b80156108b85780601f1061088d576101008083540402835291602001916108b8565b820191906000526020600020905b81548152906001019060200180831161089b57829003601f168201915b505050505081526020016003820160009054906101000a900473ffffffffffffffffffffffffffffffffffffffff1673ffffffffffffffffffffffffffffffffffffffff1673ffffffffffffffffffffffffffffffffffffffff16815250509050600080600881819054906101000a900463ffffffff168092919061093c90612d0e565b91906101000a81548163ffffffff021916908363ffffffff16021790555090507fcec9b8e63c868f2f7f30368f1583e7aa39ae80e163d57a859fa5a90244b28ac183604001516040516020016109929190612d77565b604051602081830303815290604052805190602001201480156109fe57507fb77c7d6bf62fa24fc205955093030c58325cd2d3d35fb486ede7594fb99635f582604001516040516020016109e69190612d77565b60405160208183030381529060405280519060200120145b15610c3e5785600360008363ffffffff1663ffffffff16815260200190815260200160002060000160006101000a81548163ffffffff021916908363ffffffff1602179055508160600151600360008363ffffffff1663ffffffff168152602001908152602001600020600001600c6101000a81548173ffffffffffffffffffffffffffffffffffffffff021916908373ffffffffffffffffffffffffffffffffffffffff16021790555086600360008363ffffffff1663ffffffff16815260200190815260200160002060000160046101000a81548163ffffffff021916908363ffffffff16021790555042600360008363ffffffff1663ffffffff16815260200190815260200160002060000160086101000a81548163ffffffff021916908363ffffffff1602179055508160600151600160008863ffffffff1663ffffffff16815260200190815260200160002060030160006101000a81548173ffffffffffffffffffffffffffffffffffffffff021916908373ffffffffffffffffffffffffffffffffffffffff160217905550600460008763ffffffff1663ffffffff1681526020019081526020016000208190806001815401808255809150506001900390600052602060002090600891828204019190066004029091909190916101000a81548163ffffffff021916908363ffffffff1602179055507fa5470ac012c6e9dc500e62b1d3de0de58db49b3ab7cfebbfb126d9abd854199b86604051610c2a91906123f2565b60405180910390a16001945050505061120a565b7fb77c7d6bf62fa24fc205955093030c58325cd2d3d35fb486ede7594fb99635f58360400151604051602001610c749190612d77565b60405160208183030381529060405280519060200120148015610ce057507fb77c7d6bf62fa24fc205955093030c58325cd2d3d35fb486ede7594fb99635f58260400151604051602001610cc89190612d77565b60405160208183030381529060405280519060200120145b15610f205785600360008363ffffffff1663ffffffff16815260200190815260200160002060000160006101000a81548163ffffffff021916908363ffffffff1602179055508160600151600360008363ffffffff1663ffffffff168152602001908152602001600020600001600c6101000a81548173ffffffffffffffffffffffffffffffffffffffff021916908373ffffffffffffffffffffffffffffffffffffffff16021790555086600360008363ffffffff1663ffffffff16815260200190815260200160002060000160046101000a81548163ffffffff021916908363ffffffff16021790555042600360008363ffffffff1663ffffffff16815260200190815260200160002060000160086101000a81548163ffffffff021916908363ffffffff1602179055508160600151600160008863ffffffff1663ffffffff16815260200190815260200160002060030160006101000a81548173ffffffffffffffffffffffffffffffffffffffff021916908373ffffffffffffffffffffffffffffffffffffffff160217905550600460008763ffffffff1663ffffffff1681526020019081526020016000208190806001815401808255809150506001900390600052602060002090600891828204019190066004029091909190916101000a81548163ffffffff021916908363ffffffff1602179055507fa5470ac012c6e9dc500e62b1d3de0de58db49b3ab7cfebbfb126d9abd854199b86604051610f0c91906123f2565b60405180910390a16001945050505061120a565b7fb77c7d6bf62fa24fc205955093030c58325cd2d3d35fb486ede7594fb99635f58360400151604051602001610f569190612d77565b60405160208183030381529060405280519060200120148015610fc257507fc0878b4b16a78e8085cba0ca02fc0924f1492924058d153153a3f286e0fd70ff8260400151604051602001610faa9190612d77565b60405160208183030381529060405280519060200120145b156112025785600360008363ffffffff1663ffffffff16815260200190815260200160002060000160006101000a81548163ffffffff021916908363ffffffff1602179055508160600151600360008363ffffffff1663ffffffff168152602001908152602001600020600001600c6101000a81548173ffffffffffffffffffffffffffffffffffffffff021916908373ffffffffffffffffffffffffffffffffffffffff16021790555086600360008363ffffffff1663ffffffff16815260200190815260200160002060000160046101000a81548163ffffffff021916908363ffffffff16021790555042600360008363ffffffff1663ffffffff16815260200190815260200160002060000160086101000a81548163ffffffff021916908363ffffffff1602179055508160600151600160008863ffffffff1663ffffffff16815260200190815260200160002060030160006101000a81548173ffffffffffffffffffffffffffffffffffffffff021916908373ffffffffffffffffffffffffffffffffffffffff160217905550600460008763ffffffff1663ffffffff1681526020019081526020016000208190806001815401808255809150506001900390600052602060002090600891828204019190066004029091909190916101000a81548163ffffffff021916908363ffffffff1602179055507fa5470ac012c6e9dc500e62b1d3de0de58db49b3ab7cfebbfb126d9abd854199b866040516111ee91906123f2565b60405180910390a16001945050505061120a565b600094505050505b509392505050565b606060006060600260008563ffffffff1663ffffffff168152602001908152602001600020600001600260008663ffffffff1663ffffffff16815260200190815260200160002060030160009054906101000a900473ffffffffffffffffffffffffffffffffffffffff16600260008763ffffffff1663ffffffff1681526020019081526020016000206002018280546112ab90612cad565b80601f01602080910402602001604051908101604052809291908181526020018280546112d790612cad565b80156113245780601f106112f957610100808354040283529160200191611324565b820191906000526020600020905b81548152906001019060200180831161130757829003601f168201915b5050505050925080805461133790612cad565b80601f016020809104026020016040519081016040528092919081815260200182805461136390612cad565b80156113b05780601f10611385576101008083540402835291602001916113b0565b820191906000526020600020905b81548152906001019060200180831161139357829003601f168201915b505050505090509250925092509193909250565b60007fcec9b8e63c868f2f7f30368f1583e7aa39ae80e163d57a859fa5a90244b28ac1600260008863ffffffff1663ffffffff1681526020019081526020016000206002016040516020016114199190612e22565b60405160208183030381529060405280519060200120141561164b57600080600081819054906101000a900463ffffffff168092919061145890612d0e565b91906101000a81548163ffffffff021916908363ffffffff160217905550905085600160008363ffffffff1663ffffffff16815260200190815260200160002060000190805190602001906114ae92919061227a565b5084600160008363ffffffff1663ffffffff16815260200190815260200160002060010190805190602001906114e592919061227a565b5083600160008363ffffffff1663ffffffff168152602001908152602001600020600201908051906020019061151c92919061227a565b5082600160008363ffffffff1663ffffffff16815260200190815260200160002060030160146101000a81548163ffffffff021916908363ffffffff160217905550600260008863ffffffff1663ffffffff16815260200190815260200160002060030160009054906101000a900473ffffffffffffffffffffffffffffffffffffffff16600160008363ffffffff1663ffffffff16815260200190815260200160002060030160006101000a81548173ffffffffffffffffffffffffffffffffffffffff021916908373ffffffffffffffffffffffffffffffffffffffff16021790555042600160008363ffffffff1663ffffffff16815260200190815260200160002060030160186101000a81548163ffffffff021916908363ffffffff16021790555080915050611650565b600090505b95945050505050565b60008160405160200161166c9190612d77565b60405160208183030381529060405280519060200120600260008763ffffffff1663ffffffff1681526020019081526020016000206002016040516020016116b49190612e22565b6040516020818303038152906040528051906020012014156117c557836040516020016116e19190612d77565b60405160208183030381529060405280519060200120600260008763ffffffff1663ffffffff1681526020019081526020016000206000016040516020016117299190612e22565b6040516020818303038152906040528051906020012014156117c457826040516020016117569190612d77565b60405160208183030381529060405280519060200120600260008763ffffffff1663ffffffff16815260200190815260200160002060010160405160200161179e9190612e22565b6040516020818303038152906040528051906020012014156117c357600190506117ca565b5b5b600090505b949350505050565b60026020528060005260406000206000915090508060000180546117f590612cad565b80601f016020809104026020016040519081016040528092919081815260200182805461182190612cad565b801561186e5780601f106118435761010080835404028352916020019161186e565b820191906000526020600020905b81548152906001019060200180831161185157829003601f168201915b50505050509080600101805461188390612cad565b80601f01602080910402602001604051908101604052809291908181526020018280546118af90612cad565b80156118fc5780601f106118d1576101008083540402835291602001916118fc565b820191906000526020600020905b8154815290600101906020018083116118df57829003601f168201915b50505050509080600201805461191190612cad565b80601f016020809104026020016040519081016040528092919081815260200182805461193d90612cad565b801561198a5780601f1061195f5761010080835404028352916020019161198a565b820191906000526020600020905b81548152906001019060200180831161196d57829003601f168201915b5050505050908060030160009054906101000a900473ffffffffffffffffffffffffffffffffffffffff16905084565b60036020528060005260406000206000915090508060000160009054906101000a900463ffffffff16908060000160049054906101000a900463ffffffff16908060000160089054906101000a900463ffffffff169080600001600c9054906101000a900473ffffffffffffffffffffffffffffffffffffffff16905084565b600060089054906101000a900463ffffffff1681565b60608060606000806000600160008863ffffffff1663ffffffff168152602001908152602001600020600001600160008963ffffffff1663ffffffff168152602001908152602001600020600101600160008a63ffffffff1663ffffffff168152602001908152602001600020600201600160008b63ffffffff1663ffffffff16815260200190815260200160002060030160149054906101000a900463ffffffff16600160008c63ffffffff1663ffffffff16815260200190815260200160002060030160009054906101000a900473ffffffffffffffffffffffffffffffffffffffff16600160008d63ffffffff1663ffffffff16815260200190815260200160002060030160189054906101000a900463ffffffff16858054611b7590612cad565b80601f0160208091040260200160405190810160405280929190818152602001828054611ba190612cad565b8015611bee5780601f10611bc357610100808354040283529160200191611bee565b820191906000526020600020905b815481529060010190602001808311611bd157829003601f168201915b50505050509550848054611c0190612cad565b80601f0160208091040260200160405190810160405280929190818152602001828054611c2d90612cad565b8015611c7a5780601f10611c4f57610100808354040283529160200191611c7a565b820191906000526020600020905b815481529060010190602001808311611c5d57829003601f168201915b50505050509450838054611c8d90612cad565b80601f0160208091040260200160405190810160405280929190818152602001828054611cb990612cad565b8015611d065780601f10611cdb57610100808354040283529160200191611d06565b820191906000526020600020905b815481529060010190602001808311611ce957829003601f168201915b5050505050935095509550955095509550955091939550919395565b6001602052806000526040600020600091509050806000018054611d4590612cad565b80601f0160208091040260200160405190810160405280929190818152602001828054611d7190612cad565b8015611dbe5780601f10611d9357610100808354040283529160200191611dbe565b820191906000526020600020905b815481529060010190602001808311611da157829003601f168201915b505050505090806001018054611dd390612cad565b80601f0160208091040260200160405190810160405280929190818152602001828054611dff90612cad565b8015611e4c5780601f10611e2157610100808354040283529160200191611e4c565b820191906000526020600020905b815481529060010190602001808311611e2f57829003601f168201915b505050505090806002018054611e6190612cad565b80601f0160208091040260200160405190810160405280929190818152602001828054611e8d90612cad565b8015611eda5780601f10611eaf57610100808354040283529160200191611eda565b820191906000526020600020905b815481529060010190602001808311611ebd57829003601f168201915b5050505050908060030160009054906101000a900473ffffffffffffffffffffffffffffffffffffffff16908060030160149054906101000a900463ffffffff16908060030160189054906101000a900463ffffffff16905086565b6060600460008363ffffffff1663ffffffff168152602001908152602001600020805480602002602001604051908101604052809291908181526020018280548015611fcd57602002820191906000526020600020906000905b82829054906101000a900463ffffffff1663ffffffff1681526020019060040190602082600301049283019260010382029150808411611f905790505b50505050509050919050565b6000806000806000600360008763ffffffff1663ffffffff1681526020019081526020016000206040518060800160405290816000820160009054906101000a900463ffffffff1663ffffffff1663ffffffff1681526020016000820160049054906101000a900463ffffffff1663ffffffff1663ffffffff1681526020016000820160089054906101000a900463ffffffff1663ffffffff1663ffffffff16815260200160008201600c9054906101000a900473ffffffffffffffffffffffffffffffffffffffff1673ffffffffffffffffffffffffffffffffffffffff1673ffffffffffffffffffffffffffffffffffffffff1681525050905080600001518160200151826060015183604001519450945094509450509193509193565b60008054906101000a900463ffffffff1681565b6000806000600481819054906101000a900463ffffffff168092919061213290612d0e565b91906101000a81548163ffffffff021916908363ffffffff160217905550905085600260008363ffffffff1663ffffffff168152602001908152602001600020600001908051906020019061218892919061227a565b5084600260008363ffffffff1663ffffffff16815260200190815260200160002060010190805190602001906121bf92919061227a565b5083600260008363ffffffff1663ffffffff16815260200190815260200160002060030160006101000a81548173ffffffffffffffffffffffffffffffffffffffff021916908373ffffffffffffffffffffffffffffffffffffffff16021790555082600260008363ffffffff1663ffffffff168152602001908152602001600020600201908051906020019061225792919061227a565b5080915050949350505050565b600060049054906101000a900463ffffffff1681565b82805461228690612cad565b90600052602060002090601f0160209004810192826122a857600085556122ef565b82601f106122c157805160ff19168380011785556122ef565b828001600101855582156122ef579182015b828111156122ee5782518255916020019190600101906122d3565b5b5090506122fc9190612300565b5090565b5b80821115612319576000816000905550600101612301565b5090565b6000604051905090565b600080fd5b600080fd5b600063ffffffff82169050919050565b61234a81612331565b811461235557600080fd5b50565b60008135905061236781612341565b92915050565b6000819050919050565b6123808161236d565b811461238b57600080fd5b50565b60008135905061239d81612377565b92915050565b600080604083850312156123ba576123b9612327565b5b60006123c885828601612358565b92505060206123d98582860161238e565b9150509250929050565b6123ec81612331565b82525050565b600060208201905061240760008301846123e3565b92915050565b60008060006060848603121561242657612425612327565b5b600061243486828701612358565b935050602061244586828701612358565b925050604061245686828701612358565b9150509250925092565b60008115159050919050565b61247581612460565b82525050565b6000602082019050612490600083018461246c565b92915050565b6000602082840312156124ac576124ab612327565b5b60006124ba84828501612358565b91505092915050565b600081519050919050565b600082825260208201905092915050565b60005b838110156124fd5780820151818401526020810190506124e2565b8381111561250c576000848401525b50505050565b6000601f19601f8301169050919050565b600061252e826124c3565b61253881856124ce565b93506125488185602086016124df565b61255181612512565b840191505092915050565b600073ffffffffffffffffffffffffffffffffffffffff82169050919050565b60006125878261255c565b9050919050565b6125978161257c565b82525050565b600060608201905081810360008301526125b78186612523565b90506125c6602083018561258e565b81810360408301526125d88184612523565b9050949350505050565b600080fd5b600080fd5b7f4e487b7100000000000000000000000000000000000000000000000000000000600052604160045260246000fd5b61262482612512565b810181811067ffffffffffffffff82111715612643576126426125ec565b5b80604052505050565b600061265661231d565b9050612662828261261b565b919050565b600067ffffffffffffffff821115612682576126816125ec565b5b61268b82612512565b9050602081019050919050565b82818337600083830152505050565b60006126ba6126b584612667565b61264c565b9050828152602081018484840111156126d6576126d56125e7565b5b6126e1848285612698565b509392505050565b600082601f8301126126fe576126fd6125e2565b5b813561270e8482602086016126a7565b91505092915050565b600080600080600060a0868803121561273357612732612327565b5b600061274188828901612358565b955050602086013567ffffffffffffffff8111156127625761276161232c565b5b61276e888289016126e9565b945050604086013567ffffffffffffffff81111561278f5761278e61232c565b5b61279b888289016126e9565b935050606086013567ffffffffffffffff8111156127bc576127bb61232c565b5b6127c8888289016126e9565b92505060806127d988828901612358565b9150509295509295909350565b60008060008060808587031215612800576127ff612327565b5b600061280e87828801612358565b945050602085013567ffffffffffffffff81111561282f5761282e61232c565b5b61283b878288016126e9565b935050604085013567ffffffffffffffff81111561285c5761285b61232c565b5b612868878288016126e9565b925050606085013567ffffffffffffffff8111156128895761288861232c565b5b612895878288016126e9565b91505092959194509250565b600060808201905081810360008301526128bb8187612523565b905081810360208301526128cf8186612523565b905081810360408301526128e38185612523565b90506128f2606083018461258e565b95945050505050565b600060808201905061291060008301876123e3565b61291d60208301866123e3565b61292a60408301856123e3565b612937606083018461258e565b95945050505050565b600060c082019050818103600083015261295a8189612523565b9050818103602083015261296e8188612523565b905081810360408301526129828187612523565b905061299160608301866123e3565b61299e608083018561258e565b6129ab60a08301846123e3565b979650505050505050565b600060c08201905081810360008301526129d08189612523565b905081810360208301526129e48188612523565b905081810360408301526129f88187612523565b9050612a07606083018661258e565b612a1460808301856123e3565b612a2160a08301846123e3565b979650505050505050565b600081519050919050565b600082825260208201905092915050565b6000819050602082019050919050565b612a6181612331565b82525050565b6000612a738383612a58565b60208301905092915050565b6000602082019050919050565b6000612a9782612a2c565b612aa18185612a37565b9350612aac83612a48565b8060005b83811015612add578151612ac48882612a67565b9750612acf83612a7f565b925050600181019050612ab0565b5085935050505092915050565b60006020820190508181036000830152612b048184612a8c565b905092915050565b6000608082019050612b2160008301876123e3565b612b2e60208301866123e3565b612b3b604083018561258e565b612b4860608301846123e3565b95945050505050565b612b5a8161257c565b8114612b6557600080fd5b50565b600081359050612b7781612b51565b92915050565b60008060008060808587031215612b9757612b96612327565b5b600085013567ffffffffffffffff811115612bb557612bb461232c565b5b612bc1878288016126e9565b945050602085013567ffffffffffffffff811115612be257612be161232c565b5b612bee878288016126e9565b9350506040612bff87828801612b68565b925050606085013567ffffffffffffffff811115612c2057612c1f61232c565b5b612c2c878288016126e9565b91505092959194509250565b50565b6000612c486000836124ce565b9150612c5382612c38565b600082019050919050565b60006020820190508181036000830152612c7781612c3b565b9050919050565b7f4e487b7100000000000000000000000000000000000000000000000000000000600052602260045260246000fd5b60006002820490506001821680612cc557607f821691505b60208210811415612cd957612cd8612c7e565b5b50919050565b7f4e487b7100000000000000000000000000000000000000000000000000000000600052601160045260246000fd5b6000612d1982612331565b915063ffffffff821415612d3057612d2f612cdf565b5b600182019050919050565b600081905092915050565b6000612d51826124c3565b612d5b8185612d3b565b9350612d6b8185602086016124df565b80840191505092915050565b6000612d838284612d46565b915081905092915050565b60008190508160005260206000209050919050565b60008154612db081612cad565b612dba8186612d3b565b94506001821660008114612dd55760018114612de657612e19565b60ff19831686528186019350612e19565b612def85612d8e565b60005b83811015612e1157815481890152600182019150602081019050612df2565b838801955050505b50505092915050565b6000612e2e8284612da3565b91508190509291505056fea2646970667358221220f1ef0d63c65966f89f73a8302b1d6eadf5015c819fc3fb6fbe46979a165be4a364736f6c634300080a0033",
  "immutableReferences": {},
  "source": "pragma solidity  >=0.8.10 <0.8.21;\r\n\r\n\r\ncontract supplyChain {\r\n    uint32 public product_id = 0;   // Product ID\r\n    uint32 public participant_id = 0;   // Participant ID\r\n    uint32 public owner_id = 0;   // Ownership ID\r\n\r\n    struct product {\r\n        string modelNumber;\r\n        string partNumber;\r\n        string serialNumber;\r\n        address productOwner;\r\n        uint32 cost;\r\n        uint32 mfgTimeStamp;\r\n    }\r\n\r\n    mapping(uint32 => product) public products;\r\n\r\n    struct participant {\r\n        string userName;\r\n        string password;\r\n        string participantType;\r\n        address participantAddress;\r\n    }\r\n    mapping(uint32 => participant) public participants;\r\n\r\n    struct ownership {\r\n        uint32 productId;\r\n        uint32 ownerId;\r\n        uint32 trxTimeStamp;\r\n        address productOwner;\r\n    }\r\n    mapping(uint32 => ownership) public ownerships; // ownerships by ownership ID (owner_id)\r\n    mapping(uint32 => uint32[]) public productTrack;  // ownerships by Product ID (product_id) / Movement track for a product\r\n\r\n    event TransferOwnership(uint32 productId);\r\n\r\n    function addParticipant(string memory _name, string memory _pass, address _pAdd, string memory _pType) public returns (uint32){\r\n        uint32 userId = participant_id++;\r\n        participants[userId].userName = _name;\r\n        participants[userId].password = _pass;\r\n        participants[userId].participantAddress = _pAdd;\r\n        participants[userId].participantType = _pType;\r\n\r\n        return userId;\r\n    }\r\n\r\n    function getParticipant(uint32 _participant_id) public view returns (string memory,address,string memory) {\r\n        return (participants[_participant_id].userName,\r\n                participants[_participant_id].participantAddress,\r\n                participants[_participant_id].participantType);\r\n    }\r\n\r\n    function addProduct(uint32 _ownerId,\r\n                        string memory _modelNumber,\r\n                        string memory _partNumber,\r\n                        string memory _serialNumber,\r\n                        uint32 _productCost) public returns (uint32) {\r\n        if(keccak256(abi.encodePacked(participants[_ownerId].participantType)) == keccak256(\"Manufacturer\")) {\r\n            uint32 productId = product_id++;\r\n\r\n            products[productId].modelNumber = _modelNumber;\r\n            products[productId].partNumber = _partNumber;\r\n            products[productId].serialNumber = _serialNumber;\r\n            products[productId].cost = _productCost;\r\n            products[productId].productOwner = participants[_ownerId].participantAddress;\r\n\r\n            products[productId].mfgTimeStamp = uint32(block.timestamp);\r\n\r\n            return productId;\r\n        }\r\n\r\n       return 0;\r\n    }\r\n\r\n    modifier onlyOwner(uint32 _productId) {\r\n         require(msg.sender == products[_productId].productOwner,\"\");\r\n         _;\r\n\r\n    }\r\n\r\n    function getProduct(uint32 _productId) public view returns (string memory,string memory,string memory,uint32,address,uint32){\r\n        return (products[_productId].modelNumber,\r\n                products[_productId].partNumber,\r\n                products[_productId].serialNumber,\r\n                products[_productId].cost,\r\n                products[_productId].productOwner,\r\n                products[_productId].mfgTimeStamp);\r\n    }\r\n\r\n    function newOwner(uint32 _user1Id,uint32 _user2Id, uint32 _prodId) onlyOwner(_prodId) public returns (bool) {\r\n        participant memory p1 = participants[_user1Id];\r\n        participant memory p2 = participants[_user2Id];\r\n        uint32 ownership_id = owner_id++;\r\n\r\n        if(keccak256(abi.encodePacked(p1.participantType)) == keccak256(\"Manufacturer\")\r\n            && keccak256(abi.encodePacked(p2.participantType))==keccak256(\"Supplier\")){\r\n            ownerships[ownership_id].productId = _prodId;\r\n            ownerships[ownership_id].productOwner = p2.participantAddress;\r\n            ownerships[ownership_id].ownerId = _user2Id;\r\n            ownerships[ownership_id].trxTimeStamp = uint32(block.timestamp);\r\n            products[_prodId].productOwner = p2.participantAddress;\r\n            productTrack[_prodId].push(ownership_id);\r\n            emit TransferOwnership(_prodId);\r\n\r\n            return (true);\r\n        }\r\n        else if(keccak256(abi.encodePacked(p1.participantType)) == keccak256(\"Supplier\") && keccak256(abi.encodePacked(p2.participantType))==keccak256(\"Supplier\")){\r\n            ownerships[ownership_id].productId = _prodId;\r\n            ownerships[ownership_id].productOwner = p2.participantAddress;\r\n            ownerships[ownership_id].ownerId = _user2Id;\r\n            ownerships[ownership_id].trxTimeStamp = uint32(block.timestamp);\r\n            products[_prodId].productOwner = p2.participantAddress;\r\n            productTrack[_prodId].push(ownership_id);\r\n            emit TransferOwnership(_prodId);\r\n\r\n            return (true);\r\n        }\r\n        else if(keccak256(abi.encodePacked(p1.participantType)) == keccak256(\"Supplier\") && keccak256(abi.encodePacked(p2.participantType))==keccak256(\"Consumer\")){\r\n            ownerships[ownership_id].productId = _prodId;\r\n            ownerships[ownership_id].productOwner = p2.participantAddress;\r\n            ownerships[ownership_id].ownerId = _user2Id;\r\n            ownerships[ownership_id].trxTimeStamp = uint32(block.timestamp);\r\n            products[_prodId].productOwner = p2.participantAddress;\r\n            productTrack[_prodId].push(ownership_id);\r\n            emit TransferOwnership(_prodId);\r\n\r\n            return (true);\r\n        }\r\n\r\n        return (false);\r\n    }\r\n\r\n   function getProvenance(uint32 _prodId) external view returns (uint32[] memory) {\r\n\r\n       return productTrack[_prodId];\r\n    }\r\n\r\n    function getOwnership(uint32 _regId)  public view returns (uint32,uint32,address,uint32) {\r\n\r\n        ownership memory r = ownerships[_regId];\r\n\r\n         return (r.productId,r.ownerId,r.productOwner,r.trxTimeStamp);\r\n    }\r\n\r\n    function authenticateParticipant(uint32 _uid,\r\n                                    string memory _uname,\r\n                                    string memory _pass,\r\n                                    string memory _utype) public view returns (bool){\r\n        if(keccak256(abi.encodePacked(participants[_uid].participantType)) == keccak256(abi.encodePacked(_utype))) {\r\n            if(keccak256(abi.encodePacked(participants[_uid].userName)) == keccak256(abi.encodePacked(_uname))) {\r\n                if(keccak256(abi.encodePacked(participants[_uid].password)) == keccak256(abi.encodePacked(_pass))) {\r\n                    return (true);\r\n                }\r\n            }\r\n        }\r\n\r\n        return (false);\r\n    }\r\n}",
  "sourcePath": "D:\\BLOCKCHAIN\\SupplyChain\\SupplyChain\\contracts\\SupplyChain.sol",
  "compiler": {
    "name": "solc",
    "version": "0.8.10+commit.fc410830.Emscripten.clang"
  },
  "schemaVersion": "3.4.16",
  "updatedAt": "2025-01-07T19:39:27.758Z",
  "devdoc": {
    "kind": "dev",
    "methods": {},
    "version": 1
  },
  "userdoc": {
    "kind": "user",
    "methods": {},
    "version": 1
  }
}